{"abi":[{"type":"constructor","inputs":[{"name":"_router","type":"address","internalType":"address"},{"name":"_owner","type":"address","internalType":"address"},{"name":"_underlyingToken","type":"address","internalType":"address"},{"name":"_feeBps","type":"uint256","internalType":"uint256"},{"name":"_feeRecipient","type":"address","internalType":"address"},{"name":"_weth","type":"address","internalType":"address"}],"stateMutability":"nonpayable"},{"type":"receive","stateMutability":"payable"},{"type":"function","name":"WETH","inputs":[],"outputs":[{"name":"","type":"address","internalType":"address"}],"stateMutability":"view"},{"type":"function","name":"admins","inputs":[{"name":"","type":"address","internalType":"address"}],"outputs":[{"name":"","type":"bool","internalType":"bool"}],"stateMutability":"view"},{"type":"function","name":"batchExecuteNativeSwaps","inputs":[{"name":"plans","type":"tuple[]","internalType":"struct IDCAForwarder.SwapPlan[]","components":[{"name":"user","type":"address","internalType":"address"},{"name":"tokenOut","type":"address","internalType":"address"},{"name":"recipient","type":"address","internalType":"address"},{"name":"amountIn","type":"uint256","internalType":"uint256"},{"name":"swapData","type":"bytes","internalType":"bytes"}]}],"outputs":[],"stateMutability":"nonpayable"},{"type":"function","name":"batchExecuteNativeSwapsWithFee","inputs":[{"name":"plans","type":"tuple[]","internalType":"struct IDCAForwarder.SwapPlan[]","components":[{"name":"user","type":"address","internalType":"address"},{"name":"tokenOut","type":"address","internalType":"address"},{"name":"recipient","type":"address","internalType":"address"},{"name":"amountIn","type":"uint256","internalType":"uint256"},{"name":"swapData","type":"bytes","internalType":"bytes"}]}],"outputs":[],"stateMutability":"nonpayable"},{"type":"function","name":"batchExecuteSwaps","inputs":[{"name":"plans","type":"tuple[]","internalType":"struct IDCAForwarder.SwapPlan[]","components":[{"name":"user","type":"address","internalType":"address"},{"name":"tokenOut","type":"address","internalType":"address"},{"name":"recipient","type":"address","internalType":"address"},{"name":"amountIn","type":"uint256","internalType":"uint256"},{"name":"swapData","type":"bytes","internalType":"bytes"}]}],"outputs":[],"stateMutability":"nonpayable"},{"type":"function","name":"batchExecuteSwapsWithFee","inputs":[{"name":"plans","type":"tuple[]","internalType":"struct IDCAForwarder.SwapPlan[]","components":[{"name":"user","type":"address","internalType":"address"},{"name":"tokenOut","type":"address","internalType":"address"},{"name":"recipient","type":"address","internalType":"address"},{"name":"amountIn","type":"uint256","internalType":"uint256"},{"name":"swapData","type":"bytes","internalType":"bytes"}]}],"outputs":[],"stateMutability":"nonpayable"},{"type":"function","name":"cancelPlan","inputs":[{"name":"tokenOut","type":"address","internalType":"address"}],"outputs":[],"stateMutability":"nonpayable"},{"type":"function","name":"createPlan","inputs":[{"name":"tokenOut","type":"address","internalType":"address"},{"name":"recipient","type":"address","internalType":"address"}],"outputs":[],"stateMutability":"nonpayable"},{"type":"function","name":"emergencyWithdrawETH","inputs":[],"outputs":[],"stateMutability":"nonpayable"},{"type":"function","name":"executeNativeSwap","inputs":[{"name":"user","type":"address","internalType":"address"},{"name":"tokenOut","type":"address","internalType":"address"},{"name":"recipient","type":"address","internalType":"address"},{"name":"amountIn","type":"uint256","internalType":"uint256"},{"name":"swapData","type":"bytes","internalType":"bytes"}],"outputs":[],"stateMutability":"nonpayable"},{"type":"function","name":"executeNativeSwapWithFee","inputs":[{"name":"user","type":"address","internalType":"address"},{"name":"tokenOut","type":"address","internalType":"address"},{"name":"recipient","type":"address","internalType":"address"},{"name":"amountIn","type":"uint256","internalType":"uint256"},{"name":"swapData","type":"bytes","internalType":"bytes"}],"outputs":[],"stateMutability":"nonpayable"},{"type":"function","name":"executeSwap","inputs":[{"name":"user","type":"address","internalType":"address"},{"name":"tokenOut","type":"address","internalType":"address"},{"name":"recipient","type":"address","internalType":"address"},{"name":"amountIn","type":"uint256","internalType":"uint256"},{"name":"swapData","type":"bytes","internalType":"bytes"}],"outputs":[],"stateMutability":"nonpayable"},{"type":"function","name":"executeSwapWithFee","inputs":[{"name":"user","type":"address","internalType":"address"},{"name":"tokenOut","type":"address","internalType":"address"},{"name":"recipient","type":"address","internalType":"address"},{"name":"amountIn","type":"uint256","internalType":"uint256"},{"name":"swapData","type":"bytes","internalType":"bytes"}],"outputs":[],"stateMutability":"nonpayable"},{"type":"function","name":"feeBps","inputs":[],"outputs":[{"name":"","type":"uint256","internalType":"uint256"}],"stateMutability":"view"},{"type":"function","name":"feeRecipient","inputs":[],"outputs":[{"name":"","type":"address","internalType":"address"}],"stateMutability":"view"},{"type":"function","name":"owner","inputs":[],"outputs":[{"name":"","type":"address","internalType":"address"}],"stateMutability":"view"},{"type":"function","name":"planHash","inputs":[{"name":"","type":"address","internalType":"address"},{"name":"","type":"address","internalType":"address"}],"outputs":[{"name":"","type":"bytes32","internalType":"bytes32"}],"stateMutability":"view"},{"type":"function","name":"renounceOwnership","inputs":[],"outputs":[],"stateMutability":"nonpayable"},{"type":"function","name":"setAdmin","inputs":[{"name":"_newAdmin","type":"address","internalType":"address"},{"name":"_isAdmin","type":"bool","internalType":"bool"}],"outputs":[],"stateMutability":"nonpayable"},{"type":"function","name":"swapRouter","inputs":[],"outputs":[{"name":"","type":"address","internalType":"address"}],"stateMutability":"view"},{"type":"function","name":"tokenIn","inputs":[],"outputs":[{"name":"","type":"address","internalType":"contract IERC20"}],"stateMutability":"view"},{"type":"function","name":"transferOwnership","inputs":[{"name":"newOwner","type":"address","internalType":"address"}],"outputs":[],"stateMutability":"nonpayable"},{"type":"function","name":"underlyingToken","inputs":[],"outputs":[{"name":"","type":"address","internalType":"address"}],"stateMutability":"view"},{"type":"function","name":"updateFeeBps","inputs":[{"name":"newFeeBps","type":"uint256","internalType":"uint256"}],"outputs":[],"stateMutability":"nonpayable"},{"type":"function","name":"updateFeeRecipient","inputs":[{"name":"newFeeRecipient","type":"address","internalType":"address"}],"outputs":[],"stateMutability":"nonpayable"},{"type":"function","name":"updatePlanRecipient","inputs":[{"name":"tokenOut","type":"address","internalType":"address"},{"name":"newRecipient","type":"address","internalType":"address"}],"outputs":[],"stateMutability":"nonpayable"},{"type":"function","name":"updateSwapRouter","inputs":[{"name":"newRouter","type":"address","internalType":"address"}],"outputs":[],"stateMutability":"nonpayable"},{"type":"function","name":"updateUnderlyingToken","inputs":[{"name":"newUnderlyingToken","type":"address","internalType":"address"}],"outputs":[],"stateMutability":"nonpayable"},{"type":"function","name":"withdrawFailedETH","inputs":[],"outputs":[],"stateMutability":"nonpayable"},{"type":"event","name":"ETHTransferFailed","inputs":[{"name":"recipient","type":"address","indexed":true,"internalType":"address"},{"name":"amount","type":"uint256","indexed":false,"internalType":"uint256"}],"anonymous":false},{"type":"event","name":"OwnershipTransferred","inputs":[{"name":"previousOwner","type":"address","indexed":true,"internalType":"address"},{"name":"newOwner","type":"address","indexed":true,"internalType":"address"}],"anonymous":false},{"type":"event","name":"PlanCancelled","inputs":[{"name":"user","type":"address","indexed":true,"internalType":"address"},{"name":"tokenOut","type":"address","indexed":false,"internalType":"address"},{"name":"planHash","type":"bytes32","indexed":false,"internalType":"bytes32"}],"anonymous":false},{"type":"event","name":"PlanCreated","inputs":[{"name":"user","type":"address","indexed":true,"internalType":"address"},{"name":"tokenOut","type":"address","indexed":false,"internalType":"address"},{"name":"recipient","type":"address","indexed":false,"internalType":"address"},{"name":"planHash","type":"bytes32","indexed":false,"internalType":"bytes32"}],"anonymous":false},{"type":"event","name":"PlanRecipientUpdated","inputs":[{"name":"user","type":"address","indexed":true,"internalType":"address"},{"name":"tokenOut","type":"address","indexed":false,"internalType":"address"},{"name":"newRecipient","type":"address","indexed":false,"internalType":"address"},{"name":"oldHash","type":"bytes32","indexed":false,"internalType":"bytes32"},{"name":"newHash","type":"bytes32","indexed":false,"internalType":"bytes32"}],"anonymous":false},{"type":"event","name":"SwapExecuted","inputs":[{"name":"user","type":"address","indexed":true,"internalType":"address"},{"name":"recipient","type":"address","indexed":false,"internalType":"address"},{"name":"toToken","type":"address","indexed":false,"internalType":"address"},{"name":"amountIn","type":"uint256","indexed":false,"internalType":"uint256"},{"name":"amountOut","type":"uint256","indexed":true,"internalType":"uint256"},{"name":"feeAmount","type":"uint256","indexed":false,"internalType":"uint256"}],"anonymous":false},{"type":"error","name":"ApproveFailed","inputs":[]},{"type":"error","name":"ETHWithdrawalFailed","inputs":[]},{"type":"error","name":"FeeTransferFailed","inputs":[]},{"type":"error","name":"InvalidAdminAddress","inputs":[]},{"type":"error","name":"NoETHToWithdraw","inputs":[]},{"type":"error","name":"NoTokenOutReceived","inputs":[]},{"type":"error","name":"OnlyWETHCanSendETH","inputs":[]},{"type":"error","name":"OwnableInvalidOwner","inputs":[{"name":"owner","type":"address","internalType":"address"}]},{"type":"error","name":"OwnableUnauthorizedAccount","inputs":[{"name":"account","type":"address","internalType":"address"}]},{"type":"error","name":"PlanMismatch","inputs":[]},{"type":"error","name":"PlanNotFound","inputs":[]},{"type":"error","name":"RecipientIsZero","inputs":[]},{"type":"error","name":"RecipientTransferFailed","inputs":[]},{"type":"error","name":"SwapFailed","inputs":[]},{"type":"error","name":"TokenOutIsZero","inputs":[]},{"type":"error","name":"TokenTransferFailed","inputs":[]},{"type":"error","name":"TransferFromFailed","inputs":[]},{"type":"error","name":"Unauthorized","inputs":[]}],"bytecode":{"object":"0x60a060405234801561000f575f5ffd5b50604051613f7e380380613f7e83398101604081905261002e91610139565b846001600160a01b03811661005c57604051631e4fbdf760e01b81525f600482015260240160405180910390fd5b610065816100cf565b50600280546001600160a01b03199081166001600160a01b03988916179091556001805482169588169590951785556004939093556005805490931691861691909117909155831660805291165f908152600760205260409020805460ff191690911790556101a2565b5f80546001600160a01b038381166001600160a01b0319831681178455604051919092169283917f8be0079c531659141344cd1fd0a4f28419497f9722a3daafe3b4186f6b6457e09190a35050565b80516001600160a01b0381168114610134575f5ffd5b919050565b5f5f5f5f5f5f60c0878903121561014e575f5ffd5b6101578761011e565b95506101656020880161011e565b94506101736040880161011e565b9350606087015192506101886080880161011e565b915061019660a0880161011e565b90509295509295509295565b608051613d856101f95f395f81816101cc0152818161046301528181610a9701528181610ae4015281816117060152818161175a015281816129e201528181612a3601528181613040015261308d0152613d855ff3fe6080604052600436106101bc575f3560e01c80638d041a79116100f2578063ba5f954a11610092578063d217bcec11610062578063d217bcec1461055e578063d30dfa851461057d578063f160d3691461059c578063f2fde38b146105bb575f5ffd5b8063ba5f954a146104e2578063c31c9c0714610501578063c4d6978f14610520578063c8ff3fee1461053f575f5ffd5b8063ad5c4648116100cd578063ad5c464814610452578063ae75f0cc14610485578063b98b677f146104a4578063ba20ac00146104c3575f5ffd5b80638d041a79146103f85780638da5cb5b1461041757806396a1cd2714610433575f5ffd5b80634b0bddd21161015d5780636daf390b116101385780636daf390b1461037b578063715018a61461039a5780637823f8c0146103ae57806384536017146103e4575f5ffd5b80634b0bddd21461031e5780634c5cc3e01461033d5780636c5f1f541461035c575f5ffd5b806324a9d8531161019857806324a9d8531461027f578063429b62e5146102a257806344272f43146102e057806346904840146102ff575f5ffd5b806298c7e614610210578063100da5d6146102245780632495a59914610243575f5ffd5b3661020c57336001600160a01b037f0000000000000000000000000000000000000000000000000000000000000000161461020a57604051630991a3bb60e11b815260040160405180910390fd5b005b5f5ffd5b34801561021b575f5ffd5b5061020a6105da565b34801561022f575f5ffd5b5061020a61023e3660046139a5565b610671565b34801561024e575f5ffd5b50600354610262906001600160a01b031681565b6040516001600160a01b0390911681526020015b60405180910390f35b34801561028a575f5ffd5b5061029460045481565b604051908152602001610276565b3480156102ad575f5ffd5b506102d06102bc3660046139a5565b60076020525f908152604090205460ff1681565b6040519015158152602001610276565b3480156102eb575f5ffd5b5061020a6102fa3660046139c5565b6106d8565b34801561030a575f5ffd5b50600554610262906001600160a01b031681565b348015610329575f5ffd5b5061020a610338366004613a7a565b610c1f565b348015610348575f5ffd5b5061020a6103573660046139c5565b610c78565b348015610367575f5ffd5b5061020a610376366004613aaf565b6111c1565b348015610386575f5ffd5b50600154610262906001600160a01b031681565b3480156103a5575f5ffd5b5061020a6118ef565b3480156103b9575f5ffd5b506102946103c8366004613b20565b600660209081525f928352604080842090915290825290205481565b3480156103ef575f5ffd5b5061020a611902565b348015610403575f5ffd5b5061020a610412366004613aaf565b61194a565b348015610422575f5ffd5b505f546001600160a01b0316610262565b34801561043e575f5ffd5b5061020a61044d366004613b51565b611f96565b34801561045d575f5ffd5b506102627f000000000000000000000000000000000000000000000000000000000000000081565b348015610490575f5ffd5b5061020a61049f366004613aaf565b611fa3565b3480156104af575f5ffd5b5061020a6104be3660046139a5565b612530565b3480156104ce575f5ffd5b5061020a6104dd366004613aaf565b61255a565b3480156104ed575f5ffd5b5061020a6104fc3660046139c5565b612bc4565b34801561050c575f5ffd5b50600254610262906001600160a01b031681565b34801561052b575f5ffd5b5061020a61053a3660046139a5565b6131b3565b34801561054a575f5ffd5b5061020a6105593660046139c5565b6131e7565b348015610569575f5ffd5b5061020a610578366004613b20565b61362f565b348015610588575f5ffd5b5061020a610597366004613b20565b613729565b3480156105a7575f5ffd5b5061020a6105b63660046139a5565b613806565b3480156105c6575f5ffd5b5061020a6105d53660046139a5565b613830565b475f8190036105fc5760405163cff858f960e01b815260040160405180910390fd5b5f336001600160a01b0316826040515b5f6040518083038185875af1925050503d805f8114610646576040519150601f19603f3d011682016040523d82523d5f602084013e61064b565b606091505b505090508061066d57604051634088176760e11b815260040160405180910390fd5b5050565b335f8181526006602090815260408083206001600160a01b03861684529091528082208054929055519091907f72332914a7de29e5d1284b68a8213c712de738fcc724dc5fcb054fd906e12388906106cc9085908590613b68565b60405180910390a25050565b335f9081526007602052604090205460ff16610706576040516282b42960e81b815260040160405180910390fd5b8484604051602001610719929190613b81565b60408051601f1981840301815291815281516020928301206001600160a01b03808a165f90815260068552838120918a16815293529120541461076f576040516354fb1d1d60e11b815260040160405180910390fd5b6001546040516323b872dd60e01b81526001600160a01b03909116906323b872dd906107a390899030908890600401613ba8565b6020604051808303815f875af11580156107bf573d5f5f3e3d5ffd5b505050506040513d601f19601f820116820180604052508101906107e39190613bcc565b61080057604051631e4e7d0960e21b815260040160405180910390fd5b600154600254604051636eb1769f60e11b815285926001600160a01b039081169263dd62ed3e926108379230921690600401613be7565b602060405180830381865afa158015610852573d5f5f3e3d5ffd5b505050506040513d601f19601f820116820180604052508101906108769190613c01565b10156109105760015460025460405163095ea7b360e01b81526001600160a01b039283169263095ea7b3926108b3929116905f1990600401613b68565b6020604051808303815f875af11580156108cf573d5f5f3e3d5ffd5b505050506040513d601f19601f820116820180604052508101906108f39190613bcc565b61091057604051633e3f8f7360e01b815260040160405180910390fd5b6040516370a0823160e01b815230600482015285905f906001600160a01b038316906370a0823190602401602060405180830381865afa158015610956573d5f5f3e3d5ffd5b505050506040513d601f19601f8201168201806040525081019061097a9190613c01565b6002546040519192505f916001600160a01b039091169061099e9087908790613c18565b5f604051808303815f865af19150503d805f81146109d7576040519150601f19603f3d011682016040523d82523d5f602084013e6109dc565b606091505b50509050806109fe5760405163081ceff360e41b815260040160405180910390fd5b6040516370a0823160e01b81523060048201525f906001600160a01b038516906370a0823190602401602060405180830381865afa158015610a42573d5f5f3e3d5ffd5b505050506040513d601f19601f82011682018060405250810190610a669190613c01565b90505f610a738483613c3b565b9050805f03610a9557604051633629694560e11b815260040160405180910390fd5b7f00000000000000000000000000000000000000000000000000000000000000006001600160a01b03168a6001600160a01b031603610b5257604051632e1a7d4d60e01b8152600481018290527f00000000000000000000000000000000000000000000000000000000000000006001600160a01b031690632e1a7d4d906024015f604051808303815f87803b158015610b2d575f5ffd5b505af1158015610b3f573d5f5f3e3d5ffd5b50505050610b4d8982613872565b610bdd565b60405163a9059cbb60e01b81526001600160a01b0386169063a9059cbb90610b80908c908590600401613b68565b6020604051808303815f875af1158015610b9c573d5f5f3e3d5ffd5b505050506040513d601f19601f82011682018060405250810190610bc09190613bcc565b610bdd5760405163022e258160e11b815260040160405180910390fd5b808b6001600160a01b03165f516020613d305f395f51905f528b8d8c5f604051610c0a9493929190613c54565b60405180910390a35050505050505050505050565b610c2761390f565b6001600160a01b038216610c4e5760405163016ed19f60e21b815260040160405180910390fd5b6001600160a01b03919091165f908152600760205260409020805460ff1916911515919091179055565b335f9081526007602052604090205460ff16610ca6576040516282b42960e81b815260040160405180910390fd5b8484604051602001610cb9929190613b81565b60408051601f1981840301815291815281516020928301206001600160a01b03808a165f90815260068552838120918a168152935291205414610d0f576040516354fb1d1d60e11b815260040160405180910390fd5b6001546040516323b872dd60e01b81526001600160a01b03909116906323b872dd90610d4390899030908890600401613ba8565b6020604051808303815f875af1158015610d5f573d5f5f3e3d5ffd5b505050506040513d601f19601f82011682018060405250810190610d839190613bcc565b610da057604051631e4e7d0960e21b815260040160405180910390fd5b600154600254604051636eb1769f60e11b815285926001600160a01b039081169263dd62ed3e92610dd79230921690600401613be7565b602060405180830381865afa158015610df2573d5f5f3e3d5ffd5b505050506040513d601f19601f82011682018060405250810190610e169190613c01565b1015610eb05760015460025460405163095ea7b360e01b81526001600160a01b039283169263095ea7b392610e53929116905f1990600401613b68565b6020604051808303815f875af1158015610e6f573d5f5f3e3d5ffd5b505050506040513d601f19601f82011682018060405250810190610e939190613bcc565b610eb057604051633e3f8f7360e01b815260040160405180910390fd5b6040516370a0823160e01b815230600482015285905f906001600160a01b038316906370a0823190602401602060405180830381865afa158015610ef6573d5f5f3e3d5ffd5b505050506040513d601f19601f82011682018060405250810190610f1a9190613c01565b6002546040519192505f916001600160a01b0390911690610f3e9087908790613c18565b5f604051808303815f865af19150503d805f8114610f77576040519150601f19603f3d011682016040523d82523d5f602084013e610f7c565b606091505b5050905080610f9e5760405163081ceff360e41b815260040160405180910390fd5b6040516370a0823160e01b81523060048201525f906001600160a01b038516906370a0823190602401602060405180830381865afa158015610fe2573d5f5f3e3d5ffd5b505050506040513d601f19601f820116820180604052508101906110069190613c01565b90505f6110138483613c3b565b9050805f0361103557604051633629694560e11b815260040160405180910390fd5b60045481905f906127109061104a9084613c7d565b6110549190613c94565b90506110608184613c3b565b60055460405163a9059cbb60e01b81529193506001600160a01b03808a169263a9059cbb926110959216908590600401613b68565b6020604051808303815f875af11580156110b1573d5f5f3e3d5ffd5b505050506040513d601f19601f820116820180604052508101906110d59190613bcc565b6110f257604051634033e4e360e01b815260040160405180910390fd5b60405163a9059cbb60e01b81526001600160a01b0388169063a9059cbb90611120908e908690600401613b68565b6020604051808303815f875af115801561113c573d5f5f3e3d5ffd5b505050506040513d601f19601f820116820180604052508101906111609190613bcc565b61117d5760405163454dfbf360e11b815260040160405180910390fd5b818d6001600160a01b03165f516020613d305f395f51905f528d8f8e866040516111aa9493929190613c54565b60405180910390a350505050505050505050505050565b335f9081526007602052604090205460ff166111ef576040516282b42960e81b815260040160405180910390fd5b5f5b818110156118ea573683838381811061120c5761120c613cb3565b905060200281019061121e9190613cc7565b905061123060408201602083016139a5565b61124060608301604084016139a5565b604051602001611251929190613b81565b6040516020818303038152906040528051906020012060065f835f01602081019061127c91906139a5565b6001600160a01b03166001600160a01b031681526020019081526020015f205f8360200160208101906112af91906139a5565b6001600160a01b03166001600160a01b031681526020019081526020015f2054146112ed576040516354fb1d1d60e11b815260040160405180910390fd5b6001546001600160a01b03166323b872dd61130b60208401846139a5565b3084606001356040518463ffffffff1660e01b815260040161132f93929190613ba8565b6020604051808303815f875af115801561134b573d5f5f3e3d5ffd5b505050506040513d601f19601f8201168201806040525081019061136f9190613bcc565b61138c57604051631e4e7d0960e21b815260040160405180910390fd5b600154600254604051636eb1769f60e11b81526060840135926001600160a01b039081169263dd62ed3e926113c79230921690600401613be7565b602060405180830381865afa1580156113e2573d5f5f3e3d5ffd5b505050506040513d601f19601f820116820180604052508101906114069190613c01565b10156114a05760015460025460405163095ea7b360e01b81526001600160a01b039283169263095ea7b392611443929116905f1990600401613b68565b6020604051808303815f875af115801561145f573d5f5f3e3d5ffd5b505050506040513d601f19601f820116820180604052508101906114839190613bcc565b6114a057604051633e3f8f7360e01b815260040160405180910390fd5b5f6114b160408301602084016139a5565b6040516370a0823160e01b81523060048201529091505f906001600160a01b038316906370a0823190602401602060405180830381865afa1580156114f8573d5f5f3e3d5ffd5b505050506040513d601f19601f8201168201806040525081019061151c9190613c01565b6002549091505f906001600160a01b031661153a6080860186613ce5565b604051611548929190613c18565b5f604051808303815f865af19150503d805f8114611581576040519150601f19603f3d011682016040523d82523d5f602084013e611586565b606091505b50509050806115a85760405163081ceff360e41b815260040160405180910390fd5b6040516370a0823160e01b81523060048201525f906001600160a01b038516906370a0823190602401602060405180830381865afa1580156115ec573d5f5f3e3d5ffd5b505050506040513d601f19601f820116820180604052508101906116109190613c01565b90505f61161d8483613c3b565b9050805f0361163f57604051633629694560e11b815260040160405180910390fd5b60045481905f90612710906116549084613c7d565b61165e9190613c94565b905061166a8184613c3b565b60055460405163a9059cbb60e01b81529193506001600160a01b03808a169263a9059cbb9261169f9216908590600401613b68565b6020604051808303815f875af11580156116bb573d5f5f3e3d5ffd5b505050506040513d601f19601f820116820180604052508101906116df9190613bcc565b6116fc57604051634033e4e360e01b815260040160405180910390fd5b6001600160a01b037f00000000000000000000000000000000000000000000000000000000000000001661173660408a0160208b016139a5565b6001600160a01b0316036117d957604051632e1a7d4d60e01b8152600481018390527f00000000000000000000000000000000000000000000000000000000000000006001600160a01b031690632e1a7d4d906024015f604051808303815f87803b1580156117a3575f5ffd5b505af11580156117b5573d5f5f3e3d5ffd5b506117d492506117ce91505060608a0160408b016139a5565b83613872565b611873565b6001600160a01b03871663a9059cbb6117f860608b0160408c016139a5565b846040518363ffffffff1660e01b8152600401611816929190613b68565b6020604051808303815f875af1158015611832573d5f5f3e3d5ffd5b505050506040513d601f19601f820116820180604052508101906118569190613bcc565b6118735760405163022e258160e11b815260040160405180910390fd5b8161188160208a018a6139a5565b6001600160a01b03165f516020613d305f395f51905f526118a860608c0160408d016139a5565b6118b860408d0160208e016139a5565b8c60600135866040516118ce9493929190613c54565b60405180910390a35050600190960195506111f1945050505050565b505050565b6118f761390f565b6119005f61393b565b565b61190a61390f565b475f81900361192c5760405163cff858f960e01b815260040160405180910390fd5b5f80546001600160a01b03166001600160a01b03168260405161060c565b335f9081526007602052604090205460ff16611978576040516282b42960e81b815260040160405180910390fd5b5f5b818110156118ea573683838381811061199557611995613cb3565b90506020028101906119a79190613cc7565b90506119b960408201602083016139a5565b6119c960608301604084016139a5565b6040516020016119da929190613b81565b6040516020818303038152906040528051906020012060065f835f016020810190611a0591906139a5565b6001600160a01b03166001600160a01b031681526020019081526020015f205f836020016020810190611a3891906139a5565b6001600160a01b03166001600160a01b031681526020019081526020015f205414611a76576040516354fb1d1d60e11b815260040160405180910390fd5b6001546001600160a01b03166323b872dd611a9460208401846139a5565b3084606001356040518463ffffffff1660e01b8152600401611ab893929190613ba8565b6020604051808303815f875af1158015611ad4573d5f5f3e3d5ffd5b505050506040513d601f19601f82011682018060405250810190611af89190613bcc565b611b1557604051631e4e7d0960e21b815260040160405180910390fd5b600154600254604051636eb1769f60e11b81526060840135926001600160a01b039081169263dd62ed3e92611b509230921690600401613be7565b602060405180830381865afa158015611b6b573d5f5f3e3d5ffd5b505050506040513d601f19601f82011682018060405250810190611b8f9190613c01565b1015611c295760015460025460405163095ea7b360e01b81526001600160a01b039283169263095ea7b392611bcc929116905f1990600401613b68565b6020604051808303815f875af1158015611be8573d5f5f3e3d5ffd5b505050506040513d601f19601f82011682018060405250810190611c0c9190613bcc565b611c2957604051633e3f8f7360e01b815260040160405180910390fd5b5f611c3a60408301602084016139a5565b6040516370a0823160e01b81523060048201529091505f906001600160a01b038316906370a0823190602401602060405180830381865afa158015611c81573d5f5f3e3d5ffd5b505050506040513d601f19601f82011682018060405250810190611ca59190613c01565b6002549091505f906001600160a01b0316611cc36080860186613ce5565b604051611cd1929190613c18565b5f604051808303815f865af19150503d805f8114611d0a576040519150601f19603f3d011682016040523d82523d5f602084013e611d0f565b606091505b5050905080611d315760405163081ceff360e41b815260040160405180910390fd5b6040516370a0823160e01b81523060048201525f906001600160a01b038516906370a0823190602401602060405180830381865afa158015611d75573d5f5f3e3d5ffd5b505050506040513d601f19601f82011682018060405250810190611d999190613c01565b90505f611da68483613c3b565b9050805f03611dc857604051633629694560e11b815260040160405180910390fd5b60045481905f9061271090611ddd9084613c7d565b611de79190613c94565b9050611df38184613c3b565b60055460405163a9059cbb60e01b81529193506001600160a01b03808a169263a9059cbb92611e289216908590600401613b68565b6020604051808303815f875af1158015611e44573d5f5f3e3d5ffd5b505050506040513d601f19601f82011682018060405250810190611e689190613bcc565b611e8557604051634033e4e360e01b815260040160405180910390fd5b6001600160a01b03871663a9059cbb611ea460608b0160408c016139a5565b846040518363ffffffff1660e01b8152600401611ec2929190613b68565b6020604051808303815f875af1158015611ede573d5f5f3e3d5ffd5b505050506040513d601f19601f82011682018060405250810190611f029190613bcc565b611f1f5760405163454dfbf360e11b815260040160405180910390fd5b81611f2d60208a018a6139a5565b6001600160a01b03165f516020613d305f395f51905f52611f5460608c0160408d016139a5565b611f6460408d0160208e016139a5565b8c6060013586604051611f7a9493929190613c54565b60405180910390a350506001909601955061197a945050505050565b611f9e61390f565b600455565b335f9081526007602052604090205460ff16611fd1576040516282b42960e81b815260040160405180910390fd5b5f5b818110156118ea5736838383818110611fee57611fee613cb3565b90506020028101906120009190613cc7565b905061201260408201602083016139a5565b61202260608301604084016139a5565b604051602001612033929190613b81565b6040516020818303038152906040528051906020012060065f835f01602081019061205e91906139a5565b6001600160a01b03166001600160a01b031681526020019081526020015f205f83602001602081019061209191906139a5565b6001600160a01b03166001600160a01b031681526020019081526020015f2054146120cf576040516354fb1d1d60e11b815260040160405180910390fd5b6001546001600160a01b03166323b872dd6120ed60208401846139a5565b3084606001356040518463ffffffff1660e01b815260040161211193929190613ba8565b6020604051808303815f875af115801561212d573d5f5f3e3d5ffd5b505050506040513d601f19601f820116820180604052508101906121519190613bcc565b61216e57604051631e4e7d0960e21b815260040160405180910390fd5b600154600254604051636eb1769f60e11b81526060840135926001600160a01b039081169263dd62ed3e926121a99230921690600401613be7565b602060405180830381865afa1580156121c4573d5f5f3e3d5ffd5b505050506040513d601f19601f820116820180604052508101906121e89190613c01565b10156122825760015460025460405163095ea7b360e01b81526001600160a01b039283169263095ea7b392612225929116905f1990600401613b68565b6020604051808303815f875af1158015612241573d5f5f3e3d5ffd5b505050506040513d601f19601f820116820180604052508101906122659190613bcc565b61228257604051633e3f8f7360e01b815260040160405180910390fd5b5f61229360408301602084016139a5565b6040516370a0823160e01b81523060048201529091505f906001600160a01b038316906370a0823190602401602060405180830381865afa1580156122da573d5f5f3e3d5ffd5b505050506040513d601f19601f820116820180604052508101906122fe9190613c01565b6002549091505f906001600160a01b031661231c6080860186613ce5565b60405161232a929190613c18565b5f604051808303815f865af19150503d805f8114612363576040519150601f19603f3d011682016040523d82523d5f602084013e612368565b606091505b505090508061238a5760405163081ceff360e41b815260040160405180910390fd5b6040516370a0823160e01b81523060048201525f906001600160a01b038516906370a0823190602401602060405180830381865afa1580156123ce573d5f5f3e3d5ffd5b505050506040513d601f19601f820116820180604052508101906123f29190613c01565b90505f6123ff8483613c3b565b9050805f0361242157604051633629694560e11b815260040160405180910390fd5b6001600160a01b03851663a9059cbb6124406060890160408a016139a5565b836040518363ffffffff1660e01b815260040161245e929190613b68565b6020604051808303815f875af115801561247a573d5f5f3e3d5ffd5b505050506040513d601f19601f8201168201806040525081019061249e9190613bcc565b6124bb5760405163454dfbf360e11b815260040160405180910390fd5b806124c960208801886139a5565b6001600160a01b03165f516020613d305f395f51905f526124f060608a0160408b016139a5565b61250060408b0160208c016139a5565b8a606001355f6040516125169493929190613c54565b60405180910390a3505060019094019350611fd392505050565b61253861390f565b600280546001600160a01b0319166001600160a01b0392909216919091179055565b335f9081526007602052604090205460ff16612588576040516282b42960e81b815260040160405180910390fd5b5f5b818110156118ea57368383838181106125a5576125a5613cb3565b90506020028101906125b79190613cc7565b90506125c960408201602083016139a5565b6125d960608301604084016139a5565b6040516020016125ea929190613b81565b6040516020818303038152906040528051906020012060065f835f01602081019061261591906139a5565b6001600160a01b03166001600160a01b031681526020019081526020015f205f83602001602081019061264891906139a5565b6001600160a01b03166001600160a01b031681526020019081526020015f205414612686576040516354fb1d1d60e11b815260040160405180910390fd5b6001546001600160a01b03166323b872dd6126a460208401846139a5565b3084606001356040518463ffffffff1660e01b81526004016126c893929190613ba8565b6020604051808303815f875af11580156126e4573d5f5f3e3d5ffd5b505050506040513d601f19601f820116820180604052508101906127089190613bcc565b61272557604051631e4e7d0960e21b815260040160405180910390fd5b600154600254604051636eb1769f60e11b81526060840135926001600160a01b039081169263dd62ed3e926127609230921690600401613be7565b602060405180830381865afa15801561277b573d5f5f3e3d5ffd5b505050506040513d601f19601f8201168201806040525081019061279f9190613c01565b10156128395760015460025460405163095ea7b360e01b81526001600160a01b039283169263095ea7b3926127dc929116905f1990600401613b68565b6020604051808303815f875af11580156127f8573d5f5f3e3d5ffd5b505050506040513d601f19601f8201168201806040525081019061281c9190613bcc565b61283957604051633e3f8f7360e01b815260040160405180910390fd5b5f61284a60408301602084016139a5565b6040516370a0823160e01b81523060048201529091505f906001600160a01b038316906370a0823190602401602060405180830381865afa158015612891573d5f5f3e3d5ffd5b505050506040513d601f19601f820116820180604052508101906128b59190613c01565b6002549091505f906001600160a01b03166128d36080860186613ce5565b6040516128e1929190613c18565b5f604051808303815f865af19150503d805f811461291a576040519150601f19603f3d011682016040523d82523d5f602084013e61291f565b606091505b50509050806129415760405163081ceff360e41b815260040160405180910390fd5b6040516370a0823160e01b81523060048201525f906001600160a01b038516906370a0823190602401602060405180830381865afa158015612985573d5f5f3e3d5ffd5b505050506040513d601f19601f820116820180604052508101906129a99190613c01565b90505f6129b68483613c3b565b9050805f036129d857604051633629694560e11b815260040160405180910390fd5b6001600160a01b037f000000000000000000000000000000000000000000000000000000000000000016612a1260408801602089016139a5565b6001600160a01b031603612ab557604051632e1a7d4d60e01b8152600481018290527f00000000000000000000000000000000000000000000000000000000000000006001600160a01b031690632e1a7d4d906024015f604051808303815f87803b158015612a7f575f5ffd5b505af1158015612a91573d5f5f3e3d5ffd5b50612ab09250612aaa91505060608801604089016139a5565b82613872565b612b4f565b6001600160a01b03851663a9059cbb612ad46060890160408a016139a5565b836040518363ffffffff1660e01b8152600401612af2929190613b68565b6020604051808303815f875af1158015612b0e573d5f5f3e3d5ffd5b505050506040513d601f19601f82011682018060405250810190612b329190613bcc565b612b4f5760405163022e258160e11b815260040160405180910390fd5b80612b5d60208801886139a5565b6001600160a01b03165f516020613d305f395f51905f52612b8460608a0160408b016139a5565b612b9460408b0160208c016139a5565b8a606001355f604051612baa9493929190613c54565b60405180910390a350506001909401935061258a92505050565b335f9081526007602052604090205460ff16612bf2576040516282b42960e81b815260040160405180910390fd5b8484604051602001612c05929190613b81565b60408051601f1981840301815291815281516020928301206001600160a01b03808a165f90815260068552838120918a168152935291205414612c5b576040516354fb1d1d60e11b815260040160405180910390fd5b6001546040516323b872dd60e01b81526001600160a01b03909116906323b872dd90612c8f90899030908890600401613ba8565b6020604051808303815f875af1158015612cab573d5f5f3e3d5ffd5b505050506040513d601f19601f82011682018060405250810190612ccf9190613bcc565b612cec57604051631e4e7d0960e21b815260040160405180910390fd5b600154600254604051636eb1769f60e11b815285926001600160a01b039081169263dd62ed3e92612d239230921690600401613be7565b602060405180830381865afa158015612d3e573d5f5f3e3d5ffd5b505050506040513d601f19601f82011682018060405250810190612d629190613c01565b1015612dfc5760015460025460405163095ea7b360e01b81526001600160a01b039283169263095ea7b392612d9f929116905f1990600401613b68565b6020604051808303815f875af1158015612dbb573d5f5f3e3d5ffd5b505050506040513d601f19601f82011682018060405250810190612ddf9190613bcc565b612dfc57604051633e3f8f7360e01b815260040160405180910390fd5b6040516370a0823160e01b815230600482015285905f906001600160a01b038316906370a0823190602401602060405180830381865afa158015612e42573d5f5f3e3d5ffd5b505050506040513d601f19601f82011682018060405250810190612e669190613c01565b6002546040519192505f916001600160a01b0390911690612e8a9087908790613c18565b5f604051808303815f865af19150503d805f8114612ec3576040519150601f19603f3d011682016040523d82523d5f602084013e612ec8565b606091505b5050905080612eea5760405163081ceff360e41b815260040160405180910390fd5b6040516370a0823160e01b81523060048201525f906001600160a01b038516906370a0823190602401602060405180830381865afa158015612f2e573d5f5f3e3d5ffd5b505050506040513d601f19601f82011682018060405250810190612f529190613c01565b90505f612f5f8483613c3b565b9050805f03612f8157604051633629694560e11b815260040160405180910390fd5b60045481905f9061271090612f969084613c7d565b612fa09190613c94565b9050612fac8184613c3b565b60055460405163a9059cbb60e01b81529193506001600160a01b03808a169263a9059cbb92612fe19216908590600401613b68565b6020604051808303815f875af1158015612ffd573d5f5f3e3d5ffd5b505050506040513d601f19601f820116820180604052508101906130219190613bcc565b61303e57604051634033e4e360e01b815260040160405180910390fd5b7f00000000000000000000000000000000000000000000000000000000000000006001600160a01b03168c6001600160a01b0316036130fb57604051632e1a7d4d60e01b8152600481018390527f00000000000000000000000000000000000000000000000000000000000000006001600160a01b031690632e1a7d4d906024015f604051808303815f87803b1580156130d6575f5ffd5b505af11580156130e8573d5f5f3e3d5ffd5b505050506130f68b83613872565b613186565b60405163a9059cbb60e01b81526001600160a01b0388169063a9059cbb90613129908e908690600401613b68565b6020604051808303815f875af1158015613145573d5f5f3e3d5ffd5b505050506040513d601f19601f820116820180604052508101906131699190613bcc565b6131865760405163022e258160e11b815260040160405180910390fd5b828d6001600160a01b03165f516020613d305f395f51905f528d8f8e5f6040516111aa9493929190613c54565b6131bb61390f565b600180546001600160a01b039092166001600160a01b0319928316811790915560038054909216179055565b335f9081526007602052604090205460ff16613215576040516282b42960e81b815260040160405180910390fd5b8484604051602001613228929190613b81565b60408051601f1981840301815291815281516020928301206001600160a01b03808a165f90815260068552838120918a16815293529120541461327e576040516354fb1d1d60e11b815260040160405180910390fd5b6001546040516323b872dd60e01b81526001600160a01b03909116906323b872dd906132b290899030908890600401613ba8565b6020604051808303815f875af11580156132ce573d5f5f3e3d5ffd5b505050506040513d601f19601f820116820180604052508101906132f29190613bcc565b61330f57604051631e4e7d0960e21b815260040160405180910390fd5b600154600254604051636eb1769f60e11b815285926001600160a01b039081169263dd62ed3e926133469230921690600401613be7565b602060405180830381865afa158015613361573d5f5f3e3d5ffd5b505050506040513d601f19601f820116820180604052508101906133859190613c01565b101561341f5760015460025460405163095ea7b360e01b81526001600160a01b039283169263095ea7b3926133c2929116905f1990600401613b68565b6020604051808303815f875af11580156133de573d5f5f3e3d5ffd5b505050506040513d601f19601f820116820180604052508101906134029190613bcc565b61341f57604051633e3f8f7360e01b815260040160405180910390fd5b6040516370a0823160e01b815230600482015285905f906001600160a01b038316906370a0823190602401602060405180830381865afa158015613465573d5f5f3e3d5ffd5b505050506040513d601f19601f820116820180604052508101906134899190613c01565b6002546040519192505f916001600160a01b03909116906134ad9087908790613c18565b5f604051808303815f865af19150503d805f81146134e6576040519150601f19603f3d011682016040523d82523d5f602084013e6134eb565b606091505b505090508061350d5760405163081ceff360e41b815260040160405180910390fd5b6040516370a0823160e01b81523060048201525f906001600160a01b038516906370a0823190602401602060405180830381865afa158015613551573d5f5f3e3d5ffd5b505050506040513d601f19601f820116820180604052508101906135759190613c01565b90505f6135828483613c3b565b9050805f036135a457604051633629694560e11b815260040160405180910390fd5b60405163a9059cbb60e01b81526001600160a01b0386169063a9059cbb906135d2908c908590600401613b68565b6020604051808303815f875af11580156135ee573d5f5f3e3d5ffd5b505050506040513d601f19601f820116820180604052508101906136129190613bcc565b610bdd5760405163454dfbf360e11b815260040160405180910390fd5b6001600160a01b0381166136565760405163b05313bb60e01b815260040160405180910390fd5b335f9081526006602090815260408083206001600160a01b03861684529091529020548061369757604051632aecd29f60e21b815260040160405180910390fd5b5f83836040516020016136ab929190613b81565b60408051601f198184030181528282528051602091820120335f818152600684528481206001600160a01b038b168252909352929091208190559250907fa58a298ac88c55a3fc4da4eceadc2385b26e86b637659b664913a55dde9be65d9061371b908790879087908790613c54565b60405180910390a250505050565b6001600160a01b0382166137505760405163714c537560e11b815260040160405180910390fd5b6001600160a01b0381166137775760405163b05313bb60e01b815260040160405180910390fd5b5f828260405160200161378b929190613b81565b60408051601f198184030181528282528051602091820120335f818152600684528481206001600160a01b038a168252909352929091208190559250907fe28d4fce5513eb14e83f1d21b3f975dae5a7e6b858f6d414d489518955885854906137f990869086908690613ba8565b60405180910390a2505050565b61380e61390f565b600580546001600160a01b0319166001600160a01b0392909216919091179055565b61383861390f565b6001600160a01b03811661386657604051631e4fbdf760e01b81525f60048201526024015b60405180910390fd5b61386f8161393b565b50565b805f0361387d575050565b5f826001600160a01b0316826040515f6040518083038185875af1925050503d805f81146138c6576040519150601f19603f3d011682016040523d82523d5f602084013e6138cb565b606091505b50509050806118ea57826001600160a01b03167f5e0a829b064110e9c05dca83263ffb77f1674250e6704ec97887b3ae53c5b18f836040516137f991815260200190565b5f546001600160a01b031633146119005760405163118cdaa760e01b815233600482015260240161385d565b5f80546001600160a01b038381166001600160a01b0319831681178455604051919092169283917f8be0079c531659141344cd1fd0a4f28419497f9722a3daafe3b4186f6b6457e09190a35050565b80356001600160a01b03811681146139a0575f5ffd5b919050565b5f602082840312156139b5575f5ffd5b6139be8261398a565b9392505050565b5f5f5f5f5f5f60a087890312156139da575f5ffd5b6139e38761398a565b95506139f16020880161398a565b94506139ff6040880161398a565b935060608701359250608087013567ffffffffffffffff811115613a21575f5ffd5b8701601f81018913613a31575f5ffd5b803567ffffffffffffffff811115613a47575f5ffd5b896020828401011115613a58575f5ffd5b60208201935080925050509295509295509295565b801515811461386f575f5ffd5b5f5f60408385031215613a8b575f5ffd5b613a948361398a565b91506020830135613aa481613a6d565b809150509250929050565b5f5f60208385031215613ac0575f5ffd5b823567ffffffffffffffff811115613ad6575f5ffd5b8301601f81018513613ae6575f5ffd5b803567ffffffffffffffff811115613afc575f5ffd5b8560208260051b8401011115613b10575f5ffd5b6020919091019590945092505050565b5f5f60408385031215613b31575f5ffd5b613b3a8361398a565b9150613b486020840161398a565b90509250929050565b5f60208284031215613b61575f5ffd5b5035919050565b6001600160a01b03929092168252602082015260400190565b6bffffffffffffffffffffffff19606093841b811682529190921b16601482015260280190565b6001600160a01b039384168152919092166020820152604081019190915260600190565b5f60208284031215613bdc575f5ffd5b81516139be81613a6d565b6001600160a01b0392831681529116602082015260400190565b5f60208284031215613c11575f5ffd5b5051919050565b818382375f9101908152919050565b634e487b7160e01b5f52601160045260245ffd5b81810381811115613c4e57613c4e613c27565b92915050565b6001600160a01b0394851681529290931660208301526040820152606081019190915260800190565b8082028115828204841417613c4e57613c4e613c27565b5f82613cae57634e487b7160e01b5f52601260045260245ffd5b500490565b634e487b7160e01b5f52603260045260245ffd5b5f8235609e19833603018112613cdb575f5ffd5b9190910192915050565b5f5f8335601e19843603018112613cfa575f5ffd5b83018035915067ffffffffffffffff821115613d14575f5ffd5b602001915036819003821315613d28575f5ffd5b925092905056fead671c9d50262b75ba17bdf7e330ae0d7da971800b2526584a85f83d23296b15a2646970667358221220a4aafc07264c7088a14afc4a8fdcbca53c037344a6928fbc714200bf75ecd34c64736f6c634300081e0033","linkReferences":{}},"methodIdentifiers":{"WETH()":"ad5c4648","admins(address)":"429b62e5","batchExecuteNativeSwaps((address,address,address,uint256,bytes)[])":"ba20ac00","batchExecuteNativeSwapsWithFee((address,address,address,uint256,bytes)[])":"6c5f1f54","batchExecuteSwaps((address,address,address,uint256,bytes)[])":"ae75f0cc","batchExecuteSwapsWithFee((address,address,address,uint256,bytes)[])":"8d041a79","cancelPlan(address)":"100da5d6","createPlan(address,address)":"d30dfa85","emergencyWithdrawETH()":"84536017","executeNativeSwap(address,address,address,uint256,bytes)":"44272f43","executeNativeSwapWithFee(address,address,address,uint256,bytes)":"ba5f954a","executeSwap(address,address,address,uint256,bytes)":"c8ff3fee","executeSwapWithFee(address,address,address,uint256,bytes)":"4c5cc3e0","feeBps()":"24a9d853","feeRecipient()":"46904840","owner()":"8da5cb5b","planHash(address,address)":"7823f8c0","renounceOwnership()":"715018a6","setAdmin(address,bool)":"4b0bddd2","swapRouter()":"c31c9c07","tokenIn()":"6daf390b","transferOwnership(address)":"f2fde38b","underlyingToken()":"2495a599","updateFeeBps(uint256)":"96a1cd27","updateFeeRecipient(address)":"f160d369","updatePlanRecipient(address,address)":"d217bcec","updateSwapRouter(address)":"b98b677f","updateUnderlyingToken(address)":"c4d6978f","withdrawFailedETH()":"0098c7e6"},"id":24}